:100000000C942A000C943F000C943F000C943F0089
:100010000C943F000C943F000C943F000C943F0064
:100020000C943F000C943F000C943F000C943F0054
:100030000C943F000C943F000C943F000C943F0044
:100040000C943F000C943F000C943F000C943F0034
:100050000C943F0011241FBECFE5D8E0DEBFCDBF1A
:1000600010E0A0E6B0E0E8E3F0E302C005900D92F6
:10007000AE3AB107D9F70E943E170C941A180C94A7
:100080000000EF92FF920F931F937B018C0120E001
:1000900030E040E05FE40E94110388238CF0C80147
:1000A000B70120E030E040E05FE40E94B9010E9427
:1000B00041039B01AC01205030404040504806C0F5
:1000C000C801B7010E9441039B01AC01B901CA01FB
:1000D0001F910F91FF90EF900895A0E0B0E0E3E74B
:1000E000F0E00C949E17DC012B01FA019C919230F8
:1000F00008F439C1EB018881823008F433C19430AF
:1001000069F4843009F02FC111969C91119789816F
:10011000981709F428C1ADE6B0E025C1843009F490
:1001200021C18230A9F4923009F01DC19A01AD01BC
:1001300088E0EA010990AE01E90109929E0181502F
:10014000C1F7E201898111969C918923818308C1BD
:10015000923009F407C112962D903C901397EB0151
:100160008A819B811496AD90BD90CD90DC901797BD
:10017000EC80FD800E811F819101281B390BB90194
:1001800037FF04C066277727621B730B6032710547
:100190000CF061C0121613066CF537014801062EEB
:1001A00004C096948794779467940A94D2F721E0D8
:1001B00030E040E050E004C0220F331F441F551FC1
:1001C0006A95D2F721503040404050402E213F21C7
:1001D00040235123211531054105510521F021E02E
:1001E00030E040E050E079018A01E628F72808294C
:1001F00019293CC0232BD1F1260E371E35014601AB
:10020000062E04C096948794779467940A94D2F744
:1002100021E030E040E050E004C0220F331F441FD3
:10022000551F6A95D2F721503040404050402A2156
:100230003B214C215D21211531054105510521F05E
:1002400021E030E040E050E059016A01A628B728DB
:10025000C828D9280BC0821593052CF01C01AA24AC
:10026000BB24650103C0EE24FF24870111969C91F5
:10027000D20111968C91981709F445C0992339F051
:10028000A80197012A193B094C095D0906C0A6017E
:1002900095012E193F09400B510B57FD08C01182E3
:1002A0003382228224833583468357831DC081E0B5
:1002B00081833382228288279927DC01821B930B5A
:1002C000A40BB50B84839583A683B7830DC0220F3F
:1002D000331F441F551F24833583468357838281F0
:1002E000938101979383828324813581468157814D
:1002F000DA01C9010197A109B1098F5F9F4FAF4F83
:10030000BF4328F30BC0918333822282EA0CFB1C8B
:100310000C1D1D1DE482F5820683178383E0808314
:10032000248135814681578157FF1AC0C901AA2708
:1003300097FDA095BA2F81709070A070B0705695FF
:10034000479537952795822B932BA42BB52B848328
:100350009583A683B7838281938101969383828359
:10036000DF0101C0D201CD01CDB7DEB7E2E10C94CF
:10037000BA17A0E2B0E0EFEBF1E00C94AA176983A2
:100380007A838B839C832D833E834F835887E9E058
:10039000EE2EF12CEC0EFD1ECE010196B7010E944F
:1003A0006A048E010F5E1F4FCE010596B8010E94B0
:1003B0006A048A8991E089278A8BC701B801AE0156
:1003C000475E5F4F0E946D000E949503A096E6E095
:1003D0000C94C617A0E2B0E0E0EFF1E00C94AA178D
:1003E00069837A838B839C832D833E834F835887D5
:1003F000F9E0EF2EF12CEC0EFD1ECE010196B701B7
:100400000E946A048E010F5E1F4FCE010596B8014F
:100410000E946A04C701B801AE01475E5F4F0E94A7
:100420006D000E949503A096E6E00C94C617A0E22A
:10043000B0E0EDE1F2E00C949E1769837A838B8340
:100440009C832D833E834F835887CE010196BE0146
:10045000675F7F4F0E946A04CE010596BE016F5E02
:100460007F4F0E946A049985923088F08989823092
:10047000C8F0943019F4823051F404C0843029F467
:10048000923081F48DE690E0C6C0923049F420E0CD
:100490009A858A89981321E02A87CE010996BBC0E4
:1004A000823049F420E09A858A89981321E02A8BCA
:1004B000CE014196B0C02D843E844F8458886D880B
:1004C0007E888F88988CEE24FF248701AA24BB2481
:1004D000650140E050E060E070E0E0E0F0E0C10184
:1004E00081709070892BE9F0E60CF71C081D191D2E
:1004F0009A01AB012A0D3B1D4C1D5D1D80E090E073
:10050000A0E0B0E0E614F7040805190520F481E046
:1005100090E0A0E0B0E0BA01A901480F591F6A1F9E
:100520007B1FAA0CBB1CCC1CDD1C97FE08C081E005
:1005300090E0A0E0B0E0A82AB92ACA2ADB2A3196C6
:10054000E032F10549F0660C771C881C991C569422
:10055000479437942794C3CFFA85EA892B893C893D
:100560008B859C85280F391F2E5F3F4F17C0CA010E
:1005700081709070892B61F016950795F794E79438
:1005800080E090E0A0E0B0E8E82AF92A0A2B1B2BD3
:1005900076956795579547952F5F3F4F77FDE7CF46
:1005A0000CC0440F551F661F771F17FD4160EE0CEE
:1005B000FF1C001F111F21503040403090E05907B0
:1005C00090E0690790E4790760F32B8F3C8FDB01A3
:1005D000CA018F779070A070B07080349105A1052A
:1005E000B10561F447FD0AC0E114F10401051105EC
:1005F00029F0405C5F4F6F4F7F4F40781A8EFE1797
:1006000011F081E08A8F4D8F5E8F6F8F78A383E02A
:10061000898FCE0149960E949503A096E2E10C9441
:10062000BA17A8E1B0E0E7E1F3E00C94AA176983F8
:100630007A838B839C832D833E834F83588789E005
:10064000E82EF12CEC0EFD1ECE010196B7010E94A2
:100650006A048E010F5E1F4FCE010596B8010E94FD
:100660006A048985823040F08989823028F0C70188
:10067000B8010E94E20401C08FEF6896E6E00C9496
:10068000C617ACE0B0E0E7E4F3E00C94AE17698382
:100690007A838B839C83CE010196BE016B5F7F4F73
:1006A0000E946A048D81823061F1823050F1843081
:1006B00021F48E81882351F12EC02F81388537FD9A
:1006C00020C06E812F3131051CF06623F9F023C064
:1006D0008EE190E0821B930B29853A854B855C85E2
:1006E00004C056954795379527958A95D2F7662386
:1006F000B1F050954095309521953F4F4F4F5F4F4A
:100700000EC020E030E040E050E009C02FEF3FEFA6
:100710004FEF5FE704C020E030E040E050E8B9016F
:10072000CA012C96E2E00C94CA17DF92EF92FF9276
:100730000F931F93FC01E480F58006811781D1801F
:100740008081823048F480E090E0A0E1B0E0E82AC7
:10075000F92A0A2B1B2BA5C0843009F49FC08230D4
:1007600021F4EE24FF24870105C0E114F104010502
:10077000110519F4E0E0F0E096C0628173819FEF0B
:10078000623879070CF05BC022E83FEF261B370B7D
:100790002A3131052CF020E030E040E050E02AC062
:1007A000B801A701022E04C0769567955795479525
:1007B0000A94D2F781E090E0A0E0B0E004C0880F96
:1007C000991FAA1FBB1F2A95D2F70197A109B1094A
:1007D0008E219F21A023B1230097A105B10521F00F
:1007E00081E090E0A0E0B0E09A01AB01282B392B2A
:1007F0004A2B5B2BDA01C9018F779070A070B07023
:1008000080349105A105B10539F427FF09C0205CAA
:100810003F4F4F4F5F4F04C0215C3F4F4F4F5F4FE3
:10082000E0E0F0E02030A0E03A07A0E04A07A0E4D2
:100830005A0710F0E1E0F0E079018A0127C0603842
:10084000710564F5FB01E158FF4FD801C7018F77AF
:100850009070A070B07080349105A105B10539F495
:10086000E7FE0DC080E490E0A0E0B0E004C08FE3BC
:1008700090E0A0E0B0E0E80EF91E0A1F1B1F17FF72
:1008800005C016950795F794E794319687E016957D
:100890000795F794E7948A95D1F705C0EE24FF24D5
:1008A0008701EFEFF0E06E2F679566276795902F31
:1008B0009F77D794DD24D7948E2F8695492F462B8A
:1008C000582F5D29B701CA011F910F91FF90EF903A
:1008D000DF900895FC01DB01408151812281622F6C
:1008E0006F7770E0221F2227221F9381892F880FA4
:1008F000822B282F30E0991F9927991F11969C93DE
:10090000119721153105A9F54115510561057105AD
:1009100011F482E037C082E89FEF13969C938E9388
:1009200012979A01AB0167E0220F331F441F551F36
:100930006A95D1F783E08C930DC0220F331F441FBB
:10094000551F12968D919C911397019713969C9326
:100950008E931297203080E0380780E0480780E4CB
:10096000580758F314962D933D934D935C93179726
:1009700008952F3F310579F4411551056105710541
:1009800019F484E08C93089564FF03C081E08C9394
:1009900012C01C9210C02F57304013963C932E93D8
:1009A000129783E08C9387E0440F551F661F771FD3
:1009B0008A95D1F7706414964D935D936D937C93F3
:1009C000179708951F93DC01FB019C91923008F466
:1009D00047C08081823008F443C0943051F41196AE
:1009E0001C91843099F58181682F70E0611B710939
:1009F0003FC0843021F0923031F48230B9F18181EE
:100A0000882389F12DC011961C9111978230F1F045
:100A100081811817D9F412962D913C9113978281F8
:100A200093818217930794F028173907BCF0149626
:100A30008D919D910D90BC91A02D24813581468191
:100A40005781281739074A075B0718F4112341F02B
:100A50000AC082179307A407B50740F4112319F0C1
:100A600061E070E005C06FEF7FEF02C060E070E012
:100A7000CB011F910895DF93CF9300D00F92CDB794
:100A8000DEB7E0917500F09176008FEF8083E09102
:100A90007700F09178008FE18083E0917900F09108
:100AA0007A008FEF8083E0917B00F0917C008FEFE4
:100AB0008083EBE3F0E08081EBE3F0E083E0808390
:100AC000A8E3B0E0E8E3F0E08081807E8C93E5E38A
:100AD000F0E08081E5E3F0E01082E2E3F0E0808185
:100AE000E2E3F0E010820F900F900F90CF91DF9132
:100AF0000895DF93CF9300D000D000D0CDB7DEB7FC
:100B00008C837E836D831B828C81869586958695EA
:100B10008A838C81877089838C818032D8F58A8121
:100B2000882F90E0880F991FFC01EB58FF4F019030
:100B3000F081E02D8081282F30E08981882F90E09E
:100B4000A90102C0559547958A95E2F7CA018170BF
:100B500090700097F9F48A81882F90E0880F991F90
:100B6000FC01EB57FF4F0190F081E02D8081282F91
:100B700030E08981882F90E0A90102C05595479502
:100B80008A95E2F7CA018170ED81FE81808381E060
:100B90008B8301C01B828B8126960FB6F894DEBF33
:100BA0000FBECDBFCF91DF910895DF93CF9300D0DB
:100BB00000D00F92CDB7DEB78C836D831B828C8102
:100BC0008695869586958A838C81877089838C81AA
:100BD000803208F055C08A81882F90E0880F991FD5
:100BE000FC01EB58FF4F0190F081E02D8081282F10
:100BF00030E08981882F90E0A90102C05595479582
:100C00008A95E2F7CA0181709070982F81E0892758
:100C10008823B1F58A81882F90E0880F991FFC0105
:100C2000E358FF4FA081B1818981282F30E081E016
:100C300090E002C0880F991F2A95E2F7282F20958F
:100C40008A81882F90E0880F991FFC01E358FF4F9D
:100C50000190F081E02D8081422F48238D81282F43
:100C600030E08981882F90E0B90102C0660F771FBC
:100C70008A95E2F7CB01842B8C9381E08B8301C0B2
:100C80001B828B810F900F900F900F900F90CF9140
:100C9000DF910895DF93CF9300D000D0CDB7DEB7BA
:100CA0008A837C836B8319828A81843000F58A81F0
:100CB000882F90E0880F991FFC01EB58FF4F01909F
:100CC000F081E02D8081882391F48A81882F90E043
:100CD000880F991FFC01EB57FF4F0190F081E02D29
:100CE0008081EB81FC81808381E0898301C019824E
:100CF00089810F900F900F900F90CF91DF91089501
:100D0000DF93CF9300D00F92CDB7DEB78A836B838A
:100D100019828A818430F0F48A81882F90E0880FCC
:100D2000991FFC01EB58FF4F0190F081E02D80816D
:100D30008F3F81F48A81882F90E0880F991FFC01F2
:100D4000E358FF4F0190F081E02D8B81808381E09B
:100D5000898301C0198289810F900F900F90CF91E4
:100D6000DF910895DF93CF9300D000D00F92CDB7DD
:100D7000DEB78C836D831B828C81869586958695E4
:100D80008A838C81877089838C818032B0F58A81D7
:100D9000882F90E0880F991FFC01EB58FF4FA0812E
:100DA000B1818981282F30E081E090E002C0880F76
:100DB000991F2A95E2F7282F20958A81882F90E0A5
:100DC000880F991FFC01EB58FF4F0190F081E02D37
:100DD0008081422F48238D81282F30E08981882F00
:100DE00090E0B90102C0660F771F8A95E2F7CB0148
:100DF000842B8C9381E08B8301C01B828B810F90AD
:100E00000F900F900F900F90CF91DF910895DF9387
:100E1000CF9300D00F92CDB7DEB78A836B83198250
:100E20008A81843080F48A81882F90E0880F991F0E
:100E3000FC01EB58FF4F0190F081E02D8B81808306
:100E400081E0898301C0198289810F900F900F90F2
:100E5000CF91DF910895DF93CF9300D000D000D0E1
:100E6000CDB7DEB78C837E836D831B828C818695A4
:100E7000869586958A838C81877089838C81803260
:100E8000F8F48A81882F90E0880F991FFC01EB58B5
:100E9000FF4F0190F081E02D8081282F30E0898183
:100EA000882F90E0A90102C0559547958A95E2F7F1
:100EB000CA018170ED81FE81808381E08B8301C056
:100EC0001B828B8126960FB6F894DEBF0FBECDBF76
:100ED000CF91DF910895DF93CF9300D000D0CDB7AD
:100EE000DEB78A837C836B8319828A81843090F495
:100EF0008A81882F90E0880F991FFC01EB58FF4FE3
:100F00000190F081E02D8081EB81FC81808381E084
:100F1000898301C0198289810F900F900F900F90E3
:100F2000CF91DF910895DF93CF93CDB7DEB7C55A48
:100F3000D0400FB6F894DEBF0FBECDBF85E0898FDD
:100F40001A8E1B8E1C8E1D8E1E8E1F8E18A27CC1AB
:100F500084EF91E0A0E0B0E089A39AA3ABA3BCA387
:100F60000CC0000089A19AA1ABA1BCA10197A10965
:100F7000B10989A39AA3ABA3BCA389A19AA1ABA1F0
:100F8000BCA10097A105B10561F7898D8DA39A8D4C
:100F90009EA38B8D8FA39C8D98A78D8D89A79E8DE9
:100FA0009AA78F8D8BA798A19CA78FEF8DA79FEFF6
:100FB0009EA78FEF8FA79FEF98AB8FEF89AB9FEF27
:100FC0009AAB8FEF8BAB9FEF9CAB8DA19DA5890F4B
:100FD0008DAB81E08DAF9DA98DA1981708F01DAE56
:100FE0009EA18EA5980F9EAB91E09EAF8EA99EA16B
:100FF000891708F01EAE8DAD9EA9890F8FAF81E0D5
:1010000021968FAF21979FAD8EA9981718F0219642
:101010001FAE21979EAD21968FAD2197982B9EAF45
:101020009FAD9EAB8FA19FA5890F8FAB81E02296CC
:101030008FAF22979FA98FA1981718F022961FAE05
:1010400022979EAD8FA9980F23969FAF239791E08B
:1010500024969FAF249723968FAD23979FA9891736
:1010600018F024961FAE249722968FAD22972496CF
:101070009FAD2497892B22968FAF229723968FAD11
:1010800023978FAB98A588A9980F98AF91E02596E4
:101090009FAF259788AD98A5891718F025961FAEA4
:1010A000259722968FAD229798AD890F26968FAF00
:1010B000269781E027968FAF279726969FAD269794
:1010C00088AD981718F027961FAE279725969FADE5
:1010D000259727968FAD2797982B25969FAF259715
:1010E00026969FAD269798AF89A599A9890F89AFB4
:1010F00081E028968FAF289799AD89A5981718F0A9
:1011000028961FAE289725969FAD259789AD980FF5
:1011100029969FAF299791E02A969FAF2A97299603
:101120008FAD299799AD891718F02A961FAE2A9787
:1011300028968FAD28972A969FAD2A97892B2896B7
:101140008FAF289729968FAD299789AF9AA58AA93D
:10115000980F9AAF91E02B969FAF2B978AAD9AA5E7
:10116000891718F02B961FAE2B9728968FAD2897CE
:101170009AAD890F2C968FAF2C9781E02D968FAF6B
:101180002D972C969FAD2C978AAD981718F02D9619
:101190001FAE2D972B969FAD2B972D968FAD2D972C
:1011A000982B2B969FAF2B972C969FAD2C979AAF91
:1011B0008BA59BA9890F8BAF81E02E968FAF2E97C1
:1011C0009BAD8BA5981718F02E961FAE2E972B96D9
:1011D0009FAD2B978BAD980F2F969FAF2F9791E0D8
:1011E00060969FAF60972F968FAD2F979BAD891715
:1011F00018F060961FAE60972E968FAD2E97609672
:101200009FAD6097892B2E968FAF2E972F968FAD1F
:101210002F978BAF9CA58CA9980F9CAF2E968FAD66
:101220002E979CAD890F8CAF8DA9898F9EA99A8F1F
:101230008FA98B8F98AD9C8F89AD8D8F9AAD9E8F26
:101240008BAD8F8F9CAD98A3898D9A8D892B9B8DAB
:10125000892B9C8D892B9D8D892B9E8D892B9F8D14
:10126000892B98A1892B882309F072CE80E30E94F4
:101270000B0F81E08D871E861F86188A198A1A8AAD
:101280001B8A1C8A36C284EF91E0A0E0B0E08D8B0F
:101290009E8BAF8BB88F0CC000008D899E89AF8963
:1012A000B88D0197A109B1098D8B9E8BAF8BB88F3B
:1012B0008D899E89AF89B88D0097A105B10561F729
:1012C0008D8561968FAF61979E8562969FAF62977D
:1012D0008F8563968FAF6397988964969FAF649765
:1012E000898965968FAF65979A8966969FAF66974D
:1012F0008B8967968FAF67979C8968969FAF689731
:101300008FEF69968FAF69979FEF6A969FAF6A9745
:101310008FEF6B968FAF6B979FEF6C969FAF6C972D
:101320008FEF6D968FAF6D979FEF6E969FAF6E9715
:101330008FEF6F968FAF6F979FEFA0969FAFA0979D
:1013400061968FAD619769969FAD6997890FA19658
:101350008FAFA19781E0A9968FAFA997A1969FAD76
:10136000A19761968FAD6197981718F0A9961FAE57
:10137000A99762969FAD62976A968FAD6A97980F0C
:10138000A2969FAFA29791E0AA969FAFAA97A29626
:101390008FADA29762969FAD6297891718F0AA96B3
:1013A0001FAEAA97A9968FADA997A2969FADA297B7
:1013B000890FAB968FAFAB9781E0AC968FAFAC97B0
:1013C000AB969FADAB97A2968FADA297981718F0EA
:1013D000AC961FAEAC97AA969FADAA97AC968FAD70
:1013E000AC97982BAA969FAFAA97AB969FADAB9759
:1013F000A2969FAFA29763968FAD63976B969FADB2
:101400006B97890FA3968FAFA39781E0AD968FAFAF
:10141000AD97A3969FADA39763968FAD63979817EB
:1014200018F0AD961FAEAD97AA969FADAA97A3965A
:101430008FADA397980FAE969FAFAE9791E0AF9602
:101440009FAFAF97AE968FADAE97A3969FADA39784
:10145000891718F0AF961FAEAF97AD968FADAD97C9
:10146000AF969FADAF97892BAD968FAFAD97AE96E8
:101470008FADAE97A3968FAFA39764969FAD6497F9
:101480006C968FAD6C97980FA4969FAFA49791E040
:10149000E0969FAFE097A4968FADA49764969FAD1A
:1014A0006497891718F0E0961FAEE097AD968FAD60
:1014B000AD97A4969FADA497890FE1968FAFE19762
:1014C00081E0E2968FAFE297E1969FADE197A49617
:1014D0008FADA497981718F0E2961FAEE297E096AA
:1014E0009FADE097E2968FADE297982BE0969FAF85
:1014F000E097E1969FADE197A4969FAFA49765967C
:101500008FAD65976D969FAD6D97890FA5968FAF3F
:10151000A59781E0E3968FAFE397A5969FADA5973A
:1015200065968FAD6597981718F0E3961FAEE39711
:10153000E0969FADE097A5968FADA597980FE4969E
:101540009FAFE49791E0E5969FAFE597E4968FAD66
:10155000E497A5969FADA597891718F0E5961FAE5D
:10156000E597E3968FADE397E5969FADE597892BD9
:10157000E3968FAFE397E4968FADE497A5968FAF90
:10158000A59766969FAD66976E968FAD6E97980FEE
:10159000A6969FAFA69791E0E6969FAFE697A69690
:1015A0008FADA69766969FAD6697891718F0E69659
:1015B0001FAEE697E3968FADE397A6969FADA697ED
:1015C000890FE7968FAFE79781E0E8968FAFE897AE
:1015D000E7969FADE797A6968FADA697981718F058
:1015E000E8961FAEE897E6969FADE697E8968FAD32
:1015F000E897982BE6969FAFE697E7969FADE7971B
:10160000A6969FAFA69767968FAD67976F969FAD8B
:101610006F97890FA7968FAFA79781E0E9968FAF55
:10162000E997A7969FADA79767968FAD679798178D
:1016300018F0E9961FAEE997E6969FADE697A79654
:101640008FADA797980FEA969FAFEA9791E0EB9638
:101650009FAFEB97EA968FADEA97A7969FADA797B6
:10166000891718F0EB961FAEEB97E9968FADE997C7
:10167000EB969FADEB97892BE9968FAFE997EA96AA
:101680008FADEA97A7968FAFA79768969FAD68979B
:10169000A0968FADA097980FA8969FAFA897E996B0
:1016A0008FADE997A8969FADA897890FA8968FAFA1
:1016B000A897A1968FADA1978D87A2969FADA2976F
:1016C0009E87A3968FADA3978F87A4969FADA4976F
:1016D000988BA5968FADA597898BA6969FADA6975B
:1016E0009A8BA7968FADA7978B8BA8969FADA8973F
:1016F0009C8B8D859E85892B9F85892B9889892B2D
:101700009989892B9A89892B9B89892B9C89892B7B
:10171000882309F0B8CD80E30E940B0F19821A824A
:101720001B821C821D821E821F8218864CC384EF7E
:1017300091E0A0E0B0E089879A87AB87BC870CC0B6
:10174000000089859A85AB85BC850197A109B109FF
:1017500089879A87AB87BC8789859A85AB85BC8545
:101760000097A105B10561F78981EC968FAFEC97E1
:101770009A81ED969FAFED978B81EE968FAFEE97A6
:101780009C81EF969FAFEF978D81C158DF4F888383
:10179000CF57D0409E81C058DF4F9883C058D0406B
:1017A0008F81CF57DF4F8883C158D0409885CE575F
:1017B000DF4F9883C258D0408FEFCD57DF4F8883DB
:1017C000C358D0409FEFCC57DF4F9883C458D040C8
:1017D0008FEFCB57DF4F8883C558D0409FEFCA5754
:1017E000DF4F9883C658D0408FEFC957DF4F8883AB
:1017F000C758D0409FEFC857DF4F9883C858D04094
:101800008FEFC757DF4F8883C958D0409FEFC65727
:10181000DF4F9883CA58D040EC968FADEC97CD57E8
:10182000DF4F9881C358D040890FC557DF4F888359
:10183000CB58D04081E0CD56DF4F8883C359D0408C
:10184000C557DF4F9881CB58D040EC968FADEC97C1
:10185000981728F0CD56DF4F1882C359D040ED9627
:101860009FADED97CC57DF4F8881C458D040980F7B
:10187000C457DF4F9883CC58D04091E0CC56DF4F0F
:101880009883C459D040C457DF4F8881CC58D0408A
:10189000ED969FADED97891728F0CC56DF4F188253
:1018A000C459D040CD56DF4F8881C359D040C4576A
:1018B000DF4F9881CC58D040890FCB56DF4F8883BB
:1018C000C559D04081E0CA56DF4F8883C659D04001
:1018D000CB56DF4F9881C559D040C457DF4F888120
:1018E000CC58D040981728F0CA56DF4F1882C659F6
:1018F000D040CC56DF4F9881C459D040CA56DF4FF4
:101900008881C659D040982BCC56DF4F9883C45954
:10191000D040CB56DF4F9881C559D040C457DF4FD8
:101920009883CC58D040EE968FADEE97CB57DF4FD3
:101930009881C558D040890FC357DF4F8883CD5851
:10194000D04081E0C956DF4F8883C759D040C35784
:10195000DF4F9881CD58D040EE968FADEE97981717
:1019600028F0C956DF4F1882C759D040CC56DF4FF8
:101970009881C459D040C357DF4F8881CD58D0409B
:10198000980FC856DF4F9883C859D04091E0C7568A
:10199000DF4F9883C959D040C856DF4F8881C85956
:1019A000D040C357DF4F9881CD58D040891728F0D9
:1019B000C756DF4F1882C959D040C956DF4F8881BA
:1019C000C759D040C756DF4F9881C959D040892B9D
:1019D000C956DF4F8883C759D040C856DF4F88812A
:1019E000C859D040C357DF4F8883CD58D040EF96B9
:1019F0009FADEF97CA57DF4F8881C658D040980FE8
:101A0000C257DF4F9883CE58D04091E0C656DF4F83
:101A10009883CA59D040C257DF4F8881CE58D040F2
:101A2000EF969FADEF97891728F0C656DF4F1882C3
:101A3000CA59D040C956DF4F8881C759D040C257D4
:101A4000DF4F9881CE58D040890FC556DF4F88832D
:101A5000CB59D04081E0C456DF4F8883CC59D04069
:101A6000C556DF4F9881CB59D040C257DF4F888190
:101A7000CE58D040981728F0C456DF4F1882CC5962
:101A8000D040C656DF4F9881CA59D040C456DF4F68
:101A90008881CC59D040982BC656DF4F9883CA59BD
:101AA000D040C556DF4F9881CB59D040C257DF4F49
:101AB0009883CE58D040C158DF4F8881CF57D0404F
:101AC000C957DF4F9881C758D040890FC157DF4FA2
:101AD0008883CF58D04081E0C356DF4F8883CD59EB
:101AE000D040C157DF4F9881CF58D040C158DF4F09
:101AF0008881CF57D040981728F0C356DF4F1882FF
:101B0000CD59D040C656DF4F9881CA59D040C157F1
:101B1000DF4F8881CF58D040980FC256DF4F98834F
:101B2000CE59D04091E0C156DF4F9883CF59D04075
:101B3000C256DF4F8881CE59D040C157DF4F9881C0
:101B4000CF58D040891728F0C156DF4F1882CF599F
:101B5000D040C356DF4F8881CD59D040C156DF4FAA
:101B60009881CF59D040892BC356DF4F8883CD59F8
:101B7000D040C256DF4F8881CE59D040C157DF4F89
:101B80008883CF58D040C058DF4F9881C058D0408C
:101B9000C857DF4F8881C858D040980FC057DF4FD3
:101BA0009883C059D04091E0C056DF4F9883C05A07
:101BB000D040C057DF4F8881C059D040C058DF4F58
:101BC0009881C058D040891728F0C056DF4F18823E
:101BD000C05AD040C356DF4F8881CD59D040C0573E
:101BE000DF4F9881C059D040890FCF55DF4F888390
:101BF000C15AD04081E0CE55DF4F8883C25AD040D1
:101C0000CF55DF4F9881C15AD040C057DF4F8881F0
:101C1000C059D040981728F0CE55DF4F1882C25ACD
:101C2000D040C056DF4F9881C05AD040CE55DF4FCC
:101C30008881C25AD040982BC056DF4F9883C05A33
:101C4000D040CF55DF4F9881C15AD040C057DF4FA9
:101C50009883C059D040CF57DF4F8881C158D040BA
:101C6000C757DF4F9881C958D040890FCF56DF4FF3
:101C70008883C159D04081E0CD55DF4F8883C35A56
:101C8000D040CF56DF4F9881C159D040CF57DF4F5A
:101C90008881C158D040981728F0CD55DF4F188261
:101CA000C35AD040C056DF4F9881C05AD040CF565B
:101CB000DF4F8881C159D040980FCC55DF4F9883B2
:101CC000C45AD04091E0CB55DF4F9883C55AD040DD
:101CD000CC55DF4F8881C45AD040CF56DF4F988112
:101CE000C159D040891728F0CB55DF4F1882C55A0B
:101CF000D040CD55DF4F8881C35AD040CB55DF4F00
:101D00009881C55AD040892BCD55DF4F8883C35A5F
:101D1000D040CC55DF4F8881C45AD040CF56DF4FDA
:101D20008883C159D040CE57DF4F9881C258D040E8
:101D3000C657DF4F8881CA58D040980FCE56DF4F24
:101D40009883C259D040CD55DF4F8881C35AD040C7
:101D5000CE56DF4F9881C259D040890FCE56DF4F03
:101D60008883C259D040C557DF4F8881CB58D040B7
:101D70008983C457DF4F9881CC58D0409A83C3578A
:101D8000DF4F8881CD58D0408B83C257DF4F988179
:101D9000CE58D0409C83C157DF4F8881CF58D04068
:101DA0008D83C057DF4F9881C059D0409E83CF5656
:101DB000DF4F8881C159D0408F83CE56DF4F988145
:101DC000C259D040988789819A81892B9B81892B20
:101DD0009C81892B9D81892B9E81892B9F81892BB9
:101DE0009885892B882309F0A2CC80E30E940B0FF1
:101DF00086E00E940B0F8EE00E940B0F8CE30E9486
:101E00000B0FCB55DF4F0FB6F894DEBF0FBECDBF23
:101E1000CF91DF910895DF93CF93CDB7DEB7E897E9
:101E20000FB6F894DEBF0FBECDBF8D8783E06D8502
:101E30000E94800680E160E00E94D50581E160E0BB
:101E40000E94D50582E161E00E94D50519821A82BF
:101E50001B821C821D821E821F82188608C184EF8D
:101E600091E0A0E0B0E089879A87AB87BC870CC07F
:101E7000000089859A85AB85BC850197A109B109C8
:101E800089879A87AB87BC8789859A85AB85BC850E
:101E90000097A105B10561F789818E879A819F8797
:101EA0008B81888B9C81998B8D818A8B9E819B8B6A
:101EB0008F818C8B98859D8B8FEF8E8B9FEF9F8B67
:101EC0008FEF888F9FEF998F8FEF8A8F9FEF9B8F78
:101ED0008FEF8C8F9FEF9D8F8E859E89890F8E8FC0
:101EE00081E08EA39E8D8E85981708F01EA29F8597
:101EF0008F89980F9F8F91E09FA38F8D9F85891762
:101F000008F01FA28EA19F8D890F88A781E089A765
:101F100098A58F8D981708F019A69FA189A5982BD1
:101F20009FA398A59F8F8889988D890F88A381E0AA
:101F30008AA798A18889981708F01AA69FA188A156
:101F4000980F9BA791E09CA78BA598A1891708F0F3
:101F50001CA68AA59CA5892B8AA78BA588A39989ED
:101F6000898D980F99A391E09DA789A199898917D7
:101F700008F01DA68AA599A1890F8EA781E08FA7D9
:101F80009EA589A1981708F01FA69DA58FA5982B3F
:101F90009DA79EA599A38A899A8D890F8AA381E01E
:101FA00088AB9AA18A89981708F018AA9DA58AA1DA
:101FB000980F99AB91E09AAB89A99AA1891708F07B
:101FC0001AAA88A99AA9892B88AB89A98AA39B896F
:101FD0008B8D980F9BA391E09BAB8BA19B8989175D
:101FE00008F01BAA88A99BA1890F8CAB81E08DAB5F
:101FF0009CA98BA1981708F01DAA9BA98DA9982BC5
:102000009BAB9CA99BA38C899C8D890F8CA381E0A1
:102010008EAB9CA18C89981708F01EAA9BA98CA155
:10202000980F9FAB91E098AF8FA99CA1891708F0FA
:1020300018AE8EA998AD892B8EAB8FA98CA39D89E4
:102040008D8D980F9DA38EA99DA1890F8DA38E8D37
:1020500089839F8D9A8388A18B8399A19C838AA170
:102060008D839BA19E838CA18F839DA1988789815D
:102070009A81892B9B81892B9C81892B9D81892B1E
:102080009E81892B9F81892B9885892B882309F034
:10209000E6CE82E160E00E94D505E8960FB6F8949E
:1020A000DEBF0FBECDBFCF91DF910895DF93CF93F9
:1020B000CDB7DEB7E8970FB6F894DEBF0FBECDBF41
:1020C0008D8783E06D850E94800680E161E00E943B
:1020D000D50581E160E00E94D50582E161E00E94C2
:1020E000D50519821A821B821C821D821E821F82C4
:1020F000188608C184EF91E0A0E0B0E089879A8754
:10210000AB87BC870CC0000089859A85AB85BC85F0
:102110000197A109B10989879A87AB87BC8789850F
:102120009A85AB85BC850097A105B10561F78981CA
:102130008E879A819F878B81888B9C81998B8D81DB
:102140008A8B9E819B8B8F818C8B98859D8B8FEF4B
:102150008E8B9FEF9F8B8FEF888F9FEF998F8FEFE5
:102160008A8F9FEF9B8F8FEF8C8F9FEF9D8F8E8538
:102170009E89890F8E8F81E08EA39E8D8E85981704
:1021800008F01EA29F858F89980F9F8F91E09FA3D3
:102190008F8D9F85891708F01FA28EA19F8D890FB3
:1021A00088A781E089A798A58F8D981708F019A6B0
:1021B0009FA189A5982B9FA398A59F8F8889988D0B
:1021C000890F88A381E08AA798A18889981708F0C9
:1021D0001AA69FA188A1980F9BA791E09CA78BA509
:1021E00098A1891708F01CA68AA59CA5892B8AA707
:1021F0008BA588A39989898D980F99A391E09DA7B4
:1022000089A19989891708F01DA68AA599A1890F26
:102210008EA781E08FA79EA589A1981708F01FA619
:102220009DA58FA5982B9DA79EA599A38A899A8D78
:10223000890F8AA381E088AB9AA18A89981708F050
:1022400018AA9DA58AA1980F99AB91E09AAB89A98C
:102250009AA1891708F01AAA88A99AA9892B88AB8C
:1022600089A98AA39B898B8D980F9BA391E09BAB37
:102270008BA19B89891708F01BAA88A99BA1890FAC
:102280008CAB81E08DAB9CA98BA1981708F01DAA9F
:102290009BA98DA9982B9BAB9CA99BA38C899C8DFA
:1022A000890F8CA381E08EAB9CA18C89981708F0D4
:1022B0001EAA9BA98CA1980F9FAB91E098AF8FA904
:1022C0009CA1891708F018AE8EA998AD892B8EAB0A
:1022D0008FA98CA39D898D8D980F9DA38EA99DA1FB
:1022E000890F8DA38E8D89839F8D9A8388A18B837F
:1022F00099A19C838AA18D839BA19E838CA18F83AE
:102300009DA1988789819A81892B9B81892B9C81AA
:10231000892B9D81892B9E81892B9F81892B988573
:10232000892B882309F0E6CE82E160E00E94D50582
:10233000E8960FB6F894DEBF0FBECDBFCF91DF9108
:102340000895DF93CF93CDB7DEB728970FB6F894F3
:10235000DEBF0FBECDBF9D838C836E834F832887E6
:102360001B828E81882F90E0880F991F880F991FFC
:10237000880F991F89838E81893078F581E08B835E
:1023800080E40E940B0F1A820EC08A81282F30E051
:102390008C819D81FC01E20FF31F80810E94561009
:1023A0008A818F5F8A839A818981981770F39F81D0
:1023B0008E81292F281B822F68850E94AE168E8160
:1023C0008A8307C08A8181500E9456108A81815079
:1023D0008A838A818823B1F701C01B828B8128966A
:1023E0000FB6F894DEBF0FBECDBFCF91DF91089539
:1023F000DF93CF9300D000D0CDB7DEB79C838B8323
:102400001A8219820EC08981282F30E08B819C812D
:10241000FC01E20FF31F80810E94561089818F5FBB
:1024200089838981282F30E08B819C81FC01E20F18
:10243000F31F8081882319F08981803120F38981FD
:10244000803111F41A8202C081E08A838A810F9060
:102450000F900F900F90CF91DF910895DF93CF935E
:10246000CDB7DEB7C257D0400FB6F894DEBF0FBE6F
:10247000CDBF8A8F198E8A8D282F30E03C8F2B8F0D
:102480008B8D9C8D8C30910509F42CC42B8D3C8D4B
:102490002D30310554F58B8D9C8D8430910509F4D8
:1024A00055C02B8D3C8D253031056CF48B8D9C8D6A
:1024B0008130910509F450C02B8D3C8D22303105BF
:1024C00009F4ACC13FC48B8D9C8D8A30910509F411
:1024D000FDC32B8D3C8D2B3031050CF0FDC38B8D56
:1024E0009C8D8630910561F12DC42B8D3C8D203162
:1024F000310509F415C48B8D9C8D813191056CF4E7
:102500002B8D3C8D2E30310509F4F8C38B8D9C8DBD
:102510008F3091050CF0F8C3EBC32B8D3C8D22312D
:10252000310509F409C48B8D9C8D823191050CF421
:10253000F1C32B8D3C8D2331310509F4F7C302C45F
:1025400086E00E940B0F81E0898FFDC384E00E942A
:102550000B0F81E0898FF7C381E00E940B0F81E0B0
:102560008D871E861F86188A198A1A8A1B8A1C8ADA
:1025700040C184EF91E0A0E0B0E08D8B9E8BAF8BEB
:10258000B88F0CC000008D899E89AF89B88D0197E6
:10259000A109B1098D8B9E8BAF8BB88F8D899E89D8
:1025A000AF89B88D0097A105B10561F73D853D8FD5
:1025B0008E858E8F9F859F8F288928A3398939A37F
:1025C0008A898AA39B899BA32C892CA33FEF3DA3D7
:1025D0008FEF8EA39FEF9FA32FEF28A73FEF39A781
:1025E0008FEF8AA79FEF9BA72FEF2CA73D8D8DA183
:1025F000380F3DA791E09DAB2DA53D8D231708F029
:102600001DAA8E8D9EA1890F8EA721E02EAB3EA51F
:102610008E8D381708F01EAA9DA92EA5920F9FAB8C
:1026200031E038AF8FA99EA5891708F018AE2EA902
:1026300038AD232B2EAB8FA98EA79F8D2FA1920F84
:102640009FA731E039AF8FA59F8D891708F019AE8C
:102650002EA93FA5230F2AAF81E08BAF9AAD2FA5FE
:10266000921708F01BAE39AD8BAD382B39AF9AAD50
:102670009FA728A138A5230F28AB81E08CAF98A98C
:1026800028A1921708F01CAE39AD88A9380F3DAFCC
:1026900091E09EAF2DAD38A9231708F01EAE8CAD8A
:1026A0009EAD892B8CAF2DAD28AB39A189A5380FF4
:1026B00039AB91E09FAF29A939A1231708F01FAECC
:1026C0008CAD99A9890F21968FAF219721E0229691
:1026D0002FAF229721963FAD219789A9381718F07F
:1026E00022961FAE22979FAD22962FAD2297922B56
:1026F0009FAF21963FAD219739AB8AA19AA5890F4B
:102700008AAB21E023962FAF23973AA98AA13817E5
:1027100018F023961FAE23979FAD2AA9920F2496F7
:102720009FAF249731E025963FAF259724968FAD34
:1027300024979AA9891718F025961FAE25972396F6
:102740002FAD239725963FAD2597232B23962FAFAB
:10275000239724968FAD24978AAB9BA12BA5920F2C
:102760009BAB31E026963FAF26978BA99BA189179B
:1027700018F026961FAE269723962FAD23973BA9D8
:10278000230F27962FAF279781E028968FAF2897A2
:1027900027969FAD27972BA9921718F028961FAE62
:1027A000289726963FAD269728968FAD2897382BE9
:1027B00026963FAF269727969FAD27979BAB2CA1D8
:1027C0003CA5230F2CAB26968FAD26979CA9890F8D
:1027D0008CAB2DA52D873EA53E878FA58F8798A909
:1027E000988B29A9298B3AA93A8B8BA98B8B9CA909
:1027F0009C8B8D859E85892B9F85892B9889892B1C
:102800009989892B9A89892B9B89892B9C89892B6A
:10281000882309F0AECE81E0898F95C282E00E94C4
:102820000B0F81E089831A821B821C821D821E820B
:102830001F82188636C284EF91E0A0E0B0E089875D
:102840009A87AB87BC870CC0000089859A85AB85C9
:10285000BC850197A109B10989879A87AB87BC8795
:1028600089859A85AB85BC850097A105B10561F77F
:10287000298129962FAF29973A812A963FAF2A9727
:102880008B812B968FAF2B979C812C969FAF2C978B
:102890002D812D962FAF2D973E812E963FAF2E97EF
:1028A0008F812F968FAF2F97988560969FAF6097F7
:1028B0002FEF61962FAF61973FEF62963FAF629720
:1028C0008FEF63968FAF63979FEF64969FAF649788
:1028D0002FEF65962FAF65973FEF66963FAF6697F0
:1028E0008FEF67968FAF67979FEF68969FAF689758
:1028F00029962FAD299761963FAD6197230F699671
:102900002FAF699781E0A1968FAFA19769969FAD90
:10291000699729962FAD2997921718F0A1961FAEA7
:10292000A1972A963FAD2A9762968FAD6297380F8E
:102930006A963FAF6A9791E0A2969FAFA2976A9678
:102940002FAD6A972A963FAD2A97231718F0A296C3
:102950001FAEA297A1968FADA1976A969FAD6A9779
:10296000890FA3968FAFA39721E0A4962FAFA497CA
:10297000A3963FADA3976A968FAD6A97381718F064
:10298000A4961FAEA497A2969FADA297A4962FAD32
:10299000A497922BA2969FAFA297A3963FADA39721
:1029A0006A963FAF6A972B968FAD2B9763969FAD34
:1029B0006397890F6B968FAF6B9721E0A5962FAF2A
:1029C000A5976B963FAD6B972B968FAD2B973817CE
:1029D00018F0A5961FAEA597A2969FADA2976B96ED
:1029E0002FAD6B97920FA6969FAFA69731E0A79653
:1029F0003FAFA797A6968FADA6976B969FAD6B97A7
:102A0000891718F0A7961FAEA797A5962FADA59783
:102A1000A7963FADA797232BA5962FAFA597A69670
:102A20008FADA6976B968FAF6B972C969FAD2C971B
:102A300064962FAD6497920F6C969FAF6C9731E0C0
:102A4000A8963FAFA8976C968FAD6C972C969FADCC
:102A50002C97891718F0A8961FAEA897A5962FADAA
:102A6000A5976C963FAD6C97230FA9962FAFA997AA
:102A700081E0AA968FAFAA97A9969FADA9976C9669
:102A80002FAD6C97921718F0AA961FAEAA97A8962A
:102A90003FADA897AA968FADAA97382BA8963FAFBF
:102AA000A897A9969FADA9976C969FAF6C972D9606
:102AB0002FAD2D9765963FAD6597230F6D962FAF80
:102AC0006D9781E0AB968FAFAB976D969FAD6D978D
:102AD0002D962FAD2D97921718F0AB961FAEAB9792
:102AE000A8963FADA8976D968FAD6D97380FAC96B1
:102AF0003FAFAC9791E0AD969FAFAD97AC962FAD41
:102B0000AC976D963FAD6D97231718F0AD961FAE3D
:102B1000AD97AB968FADAB97AD969FADAD97892B2B
:102B2000AB968FAFAB97AC962FADAC976D962FAFA2
:102B30006D972E963FAD2E9766968FAD6697380FA0
:102B40006E963FAF6E9791E0AE969FAFAE976E9642
:102B50002FAD6E972E963FAD2E97231718F0AE9699
:102B60001FAEAE97AB968FADAB976E969FAD6E973F
:102B7000890FAF968FAFAF9721E0E0962FAFE09728
:102B8000AF963FADAF976E968FAD6E97381718F032
:102B9000E0961FAEE097AE969FADAE97E0962FAD54
:102BA000E097922BAE969FAFAE97AF963FADAF97A3
:102BB0006E963FAF6E972F968FAD2F9767969FAD0E
:102BC0006797890F6F968FAF6F9721E0E1962FAFD0
:102BD000E1976F963FAD6F972F968FAD2F97381770
:102BE00018F0E1961FAEE197AE969FADAE976F9647
:102BF0002FAD6F97920FE2969FAFE29731E0E39689
:102C00003FAFE397E2968FADE2976F969FAD6F97D8
:102C1000891718F0E3961FAEE397E1962FADE19781
:102C2000E3963FADE397232BE1962FAFE197E29632
:102C30008FADE2976F968FAF6F9760969FAD60975D
:102C400068962FAD6897920FA0969FAFA097E196D8
:102C50008FADE197A0963FADA097830FA0968FAF61
:102C6000A09769968FAD699789836A969FAD6A9799
:102C70009A836B962FAD6B972B836C963FAD6C97B9
:102C80003C836D968FAD6D978D836E969FAD6E97DD
:102C90009E836F962FAD6F972F83A0963FADA09721
:102CA000388789819A81892B9B81892B9C81892BEB
:102CB0009D81892B9E81892B9F81892B9885892BCA
:102CC000882309F0B8CD81E0898F3DC08EE00E9455
:102CD0000B0F81E0898F37C08AE00E940B0F81E0E3
:102CE000898F31C08EE00E940B0F81E0898F2BC04D
:102CF0008CE00E940B0F81E0898F25C08FE00E943D
:102D00000B0F81E0898F1FC08EE00E940B0F81E0C6
:102D1000898F19C08CE10E940B0F81E0898F13C04D
:102D200088E10E940B0F81E0898F0DC084E10E9431
:102D30000B0F81E0898F07C080E10E940B0F81E0BB
:102D4000898F01C0198E898DCE58DF4F0FB6F89448
:102D5000DEBF0FBECDBFCF91DF910895DF93CF933C
:102D600000D000D0CDB7DEB78B836C831A82198276
:102D70008B818031D0F48C818230B8F48C81882FA3
:102D800090E00024969587950794969587950794EB
:102D9000982F802D982F90688B81892B898389812A
:102DA0000E940B0F81E08A8301C01A828A810F90F2
:102DB0000F900F900F90CF91DF910895DF93CF93F5
:102DC000CDB7DEB72E970FB6F894DEBF0FBECDBFDE
:102DD0006B877C878D879E876B857C858D859E859F
:102DE0000E944100DC01CB019E838D836B857C8535
:102DF0008D859E8520E030E048EC52E40E94170269
:102E0000DC01CB01BC01CD010E944100DC01CB0102
:102E100024E630E040E050E0BC01CD010E947C1788
:102E2000DC01CB0189839A83AB83BC838D819E8136
:102E30009E01295F3F4FB9014AE050E00E94D5173B
:102E4000CE0107960E94F8118EE20E9456108981E9
:102E50009A819E01275F3F4FB9014AE050E00E94EE
:102E6000D517CE0109960E94F8112E960FB6F89448
:102E7000DEBF0FBECDBFCF91DF910895DF93CF931B
:102E8000CDB7DEB7A9970FB6F894DEBF0FBECDBFA2
:102E9000CE0101969EA38DA3EDE8F0E0F8A7EFA385
:102EA000F0E2F9A7EFA1F8A500808FA198A50196FF
:102EB00098A78FA3EDA1FEA100828DA19EA10196EE
:102EC0009EA38DA399A5915099A7E9A5EE2351F74B
:102ED0000E943B050E94930780E690E09AA389A395
:102EE00085E690E09CA38BA3CE01019664E040E1CF
:102EF00020E00E94A111FFCFA1E21A2EAA1BBB1B4A
:102F0000FD010DC0AA1FBB1FEE1FFF1FA217B307B5
:102F1000E407F50720F0A21BB30BE40BF50B661FCB
:102F2000771F881F991F1A9469F76095709580958F
:102F300090959B01AC01BD01CF0108952F923F9266
:102F40004F925F926F927F928F929F92AF92BF92B9
:102F5000CF92DF92EF92FF920F931F93CF93DF9365
:102F6000CDB7DEB7CA1BDB0B0FB6F894DEBF0FBEC2
:102F7000CDBF09942A88398848885F846E847D840F
:102F80008C849B84AA84B984C884DF80EE80FD8011
:102F90000C811B81AA81B981CE0FD11D0FB6F89487
:102FA000DEBF0FBECDBFED010895FB019F01E89488
:102FB0004230C4F04532B4F44A3029F497FB1EF491
:102FC000909581959F4F642F77270E940618805D0A
:102FD0008A330CF0895D8193CB010097A1F716F439
:102FE0005DE251931082C9010C94F617DC01FC01DB
:102FF000672F71917723E1F7329704C07C916D932D
:1030000070836291AE17BF07C8F30895AA1BBB1B5C
:1030100051E107C0AA1FBB1FA617B70710F0A61BD8
:10302000B70B881F991F5A95A9F780959095BC01F9
:08303000CD010895F894FFCFD3
:10303800416E6173004562726168696D000000004D
:1030480000000000003A003700340031003B00382F
:103058000035003200390036003300300007041F05
:103068000404040404000000020001011F00000021
:0E307800000015151F000000000008080F00E2
:00000001FF
