:100000000C942A000C94A8090C94D5090C94020AAB
:100010000C9447000C9447000C9447000C94470044
:100020000C9447000C94800A0C9447000C94410AED
:100030000C9447000C9447000C9447000C94470024
:100040000C9447000C9447000C9447000C94470014
:100050000C94470011241FBECFE5D8E0DEBFCDBF12
:1000600011E0A0E6B0E0E0E5F8E102C005900D92F5
:10007000A038B107D9F711E0A0E8B1E001C01D92A6
:10008000AB38B107E1F70E94E80B0C94260C0C94F6
:100090000000EF92FF920F931F937B018C0120E0F1
:1000A00030E040E05FE40E94190388238CF0C8012F
:1000B000B70120E030E040E05FE40E94C1010E940F
:1000C00049039B01AC01205030404040504806C0DD
:1000D000C801B7010E9449039B01AC01B901CA01E3
:1000E0001F910F91FF90EF900895A0E0B0E0EBE733
:1000F000F0E00C94EF0BDC012B01FA019C919230A3
:1001000008F439C1EB018881823008F433C194309E
:1001100069F4843009F02FC111969C91119789815F
:10012000981709F428C1A0E6B0E025C1843009F48D
:1001300021C18230A9F4923009F01DC19A01AD01AC
:1001400088E0EA010990AE01E90109929E0181501F
:10015000C1F7E201898111969C918923818308C1AD
:10016000923009F407C112962D903C901397EB0141
:100170008A819B811496AD90BD90CD90DC901797AD
:10018000EC80FD800E811F819101281B390BB90184
:1001900037FF04C066277727621B730B6032710537
:1001A0000CF061C0121613066CF537014801062EDB
:1001B00004C096948794779467940A94D2F721E0C8
:1001C00030E040E050E004C0220F331F441F551FB1
:1001D0006A95D2F721503040404050402E213F21B7
:1001E00040235123211531054105510521F021E01E
:1001F00030E040E050E079018A01E628F72808293C
:1002000019293CC0232BD1F1260E371E350146019A
:10021000062E04C096948794779467940A94D2F734
:1002200021E030E040E050E004C0220F331F441FC3
:10023000551F6A95D2F721503040404050402A2146
:100240003B214C215D21211531054105510521F04E
:1002500021E030E040E050E059016A01A628B728CB
:10026000C828D9280BC0821593052CF01C01AA249C
:10027000BB24650103C0EE24FF24870111969C91E5
:10028000D20111968C91981709F445C0992339F041
:10029000A80197012A193B094C095D0906C0A6016E
:1002A00095012E193F09400B510B57FD08C01182D3
:1002B0003382228224833583468357831DC081E0A5
:1002C00081833382228288279927DC01821B930B4A
:1002D000A40BB50B84839583A683B7830DC0220F2F
:1002E000331F441F551F24833583468357838281E0
:1002F000938101979383828324813581468157813D
:10030000DA01C9010197A109B1098F5F9F4FAF4F72
:10031000BF4328F30BC0918333822282EA0CFB1C7B
:100320000C1D1D1DE482F5820683178383E0808304
:10033000248135814681578157FF1AC0C901AA27F8
:1003400097FDA095BA2F81709070A070B0705695EF
:10035000479537952795822B932BA42BB52B848318
:100360009583A683B7838281938101969383828349
:10037000DF0101C0D201CD01CDB7DEB7E2E10C94BF
:100380000B0CA0E2B0E0E7ECF1E00C94FB0B69830E
:100390007A838B839C832D833E834F835887E9E048
:1003A000EE2EF12CEC0EFD1ECE010196B7010E943F
:1003B0003A058E010F5E1F4FCE010596B8010E94CF
:1003C0003A058A8991E089278A8BC701B801AE0175
:1003D000475E5F4F0E9475000E946504A096E6E0AC
:1003E0000C94170CA0E2B0E0E8EFF1E00C94FB0BEA
:1003F00069837A838B839C832D833E834F835887C5
:10040000F9E0EF2EF12CEC0EFD1ECE010196B701A6
:100410000E943A058E010F5E1F4FCE010596B8016E
:100420000E943A05C701B801AE01475E5F4F0E94C6
:1004300075000E946504A096E6E00C94170CA0E2FB
:10044000B0E0E5E2F2E00C94EF0B69837A838B83F2
:100450009C832D833E834F835887CE010196BE0136
:10046000675F7F4F0E943A05CE010596BE016F5E21
:100470007F4F0E943A059985923088F089898230B1
:10048000C8F0943019F4823051F404C0843029F457
:10049000923081F480E690E0C6C0923049F420E0CA
:1004A0009A858A89981321E02A87CE010996BBC0D4
:1004B000823049F420E09A858A89981321E02A8BBA
:1004C000CE014196B0C02D843E844F8458886D88FB
:1004D0007E888F88988CEE24FF248701AA24BB2471
:1004E000650140E050E060E070E0E0E0F0E0C10174
:1004F00081709070892BE9F0E60CF71C081D191D1E
:100500009A01AB012A0D3B1D4C1D5D1D80E090E062
:10051000A0E0B0E0E614F7040805190520F481E036
:1005200090E0A0E0B0E0BA01A901480F591F6A1F8E
:100530007B1FAA0CBB1CCC1CDD1C97FE08C081E0F5
:1005400090E0A0E0B0E0A82AB92ACA2ADB2A3196B6
:10055000E032F10549F0660C771C881C991C569412
:10056000479437942794C3CFFA85EA892B893C892D
:100570008B859C85280F391F2E5F3F4F17C0CA01FE
:1005800081709070892B61F016950795F794E79428
:1005900080E090E0A0E0B0E8E82AF92A0A2B1B2BC3
:1005A00076956795579547952F5F3F4F77FDE7CF36
:1005B0000CC0440F551F661F771F17FD4160EE0CDE
:1005C000FF1C001F111F21503040403090E05907A0
:1005D00090E0690790E4790760F32B8F3C8FDB0193
:1005E000CA018F779070A070B07080349105A1051A
:1005F000B10561F447FD0AC0E114F10401051105DC
:1006000029F0405C5F4F6F4F7F4F40781A8EFE1786
:1006100011F081E08A8F4D8F5E8F6F8F78A383E01A
:10062000898FCE0149960E946504A096E2E10C9460
:100630000B0CA8E1B0E0EFE1F3E00C94FB0B698355
:100640007A838B839C832D833E834F83588789E0F5
:10065000E82EF12CEC0EFD1ECE010196B7010E9492
:100660003A058E010F5E1F4FCE010596B8010E941C
:100670003A058985823040F08989823028F0C701A7
:10068000B8010E94B20501C08FEF6896E6E00C94B5
:10069000170CACE0B0E0EFE4F3E00C94FF0B6983DF
:1006A0007A838B839C83CE010196BE016B5F7F4F63
:1006B0000E943A058D81823061F1823050F18430A0
:1006C00021F48E81882351F12EC02F81388537FD8A
:1006D00020C06E812F3131051CF06623F9F023C054
:1006E0008EE190E0821B930B29853A854B855C85D2
:1006F00004C056954795379527958A95D2F7662376
:10070000B1F050954095309521953F4F4F4F5F4F39
:100710000EC020E030E040E050E009C02FEF3FEF96
:100720004FEF5FE704C020E030E040E050E8B9015F
:10073000CA012C96E2E00C941B0CA8E0B0E0E3EABE
:10074000F3E00C94F70B7B018C01611571058105B9
:10075000910519F482E0898360C083E089838EE18A
:10076000C82ED12CDC82CB82ED82FE820F831887CB
:10077000C801B7010E941604FC013197F7FF3BC086
:10078000222733272E1B3F0B57016801022E04C07E
:10079000D694C794B794A7940A94D2F740E050E057
:1007A00060E070E081E090E0A0E0B0E004C0880F7D
:1007B000991FAA1FBB1F2A95D2F70197A109B1095A
:1007C0008E219F21A023B1230097A105B10521F01F
:1007D00041E050E060E070E04A295B296C297D2906
:1007E0004D835E836F8378878EE190E08E1B9F0B35
:1007F0009C838B8312C0309781F00E2E04C0EE0CC8
:10080000FF1C001F111F0A94D2F7ED82FE820F8396
:100810001887CE1ADF0ADC82CB821A82CE010196BB
:100820000E9465042896EAE00C94130CEF92FF9264
:100830000F931F937B018C0180E0E81680E0F8069F
:1008400081E0080780E0180788F48FEFE816F104CC
:100850000105110531F028F088E090E0A0E0B0E05B
:1008600017C080E090E0A0E0B0E012C080E0E816A1
:1008700080E0F80680E0080781E0180728F088E1AA
:1008800090E0A0E0B0E004C080E190E0A0E0B0E043
:1008900020E230E040E050E0281B390B4A0B5B0BB4
:1008A00004C016950795F794E7948A95D2F7F70157
:1008B000E859FF4F8081281B310941095109C901BD
:1008C0001F910F91FF90EF900895DF92EF92FF92AA
:1008D0000F931F93FC01E480F58006811781D1807E
:1008E0008081823048F480E090E0A0E1B0E0E82A26
:1008F000F92A0A2B1B2BA5C0843009F49FC0823033
:1009000021F4EE24FF24870105C0E114F104010560
:10091000110519F4E0E0F0E096C0628173819FEF69
:10092000623879070CF05BC022E83FEF261B370BDB
:100930002A3131052CF020E030E040E050E02AC0C0
:10094000B801A701022E04C0769567955795479583
:100950000A94D2F781E090E0A0E0B0E004C0880FF4
:10096000991FAA1FBB1F2A95D2F70197A109B109A8
:100970008E219F21A023B1230097A105B10521F06D
:1009800081E090E0A0E0B0E09A01AB01282B392B88
:100990004A2B5B2BDA01C9018F779070A070B07081
:1009A00080349105A105B10539F427FF09C0205C09
:1009B0003F4F4F4F5F4F04C0215C3F4F4F4F5F4F42
:1009C000E0E0F0E02030A0E03A07A0E04A07A0E431
:1009D0005A0710F0E1E0F0E079018A0127C06038A1
:1009E000710564F5FB01E158FF4FD801C7018F770E
:1009F0009070A070B07080349105A105B10539F4F4
:100A0000E7FE0DC080E490E0A0E0B0E004C08FE31A
:100A100090E0A0E0B0E0E80EF91E0A1F1B1F17FFD0
:100A200005C016950795F794E794319687E01695DB
:100A30000795F794E7948A95D1F705C0EE24FF2433
:100A40008701EFEFF0E06E2F679566276795902F8F
:100A50009F77D794DD24D7948E2F8695492F462BE8
:100A6000582F5D29B701CA011F910F91FF90EF9098
:100A7000DF900895FC01DB01408151812281622FCA
:100A80006F7770E0221F2227221F9381892F880F02
:100A9000822B282F30E0991F9927991F11969C933C
:100AA000119721153105A9F541155105610571050C
:100AB00011F482E037C082E89FEF13969C938E93E7
:100AC00012979A01AB0167E0220F331F441F551F95
:100AD0006A95D1F783E08C930DC0220F331F441F1A
:100AE000551F12968D919C911397019713969C9385
:100AF0008E931297203080E0380780E0480780E42A
:100B0000580758F314962D933D934D935C93179784
:100B100008952F3F310579F441155105610571059F
:100B200019F484E08C93089564FF03C081E08C93F2
:100B300012C01C9210C02F57304013963C932E9336
:100B4000129783E08C9387E0440F551F661F771F31
:100B50008A95D1F7706414964D935D936D937C9351
:100B6000179708951F93DC01FB019C91923008F4C4
:100B700047C08081823008F443C0943051F411960C
:100B80001C91843099F58181682F70E0611B710997
:100B90003FC0843021F0923031F48230B9F181814C
:100BA000882389F12DC011961C9111978230F1F0A4
:100BB00081811817D9F412962D913C911397828157
:100BC00093818217930794F028173907BCF0149685
:100BD0008D919D910D90BC91A02D248135814681F0
:100BE0005781281739074A075B0718F4112341F08A
:100BF0000AC082179307A407B50740F4112319F020
:100C000061E070E005C06FEF7FEF02C060E070E070
:100C1000CB011F910895DF93CF9300D00F92CDB7F2
:100C2000DEB7EAE3F0E08FEF8083E7E3F0E08FEFF9
:100C30008083E4E3F0E08FEF8083E1E3F0E08BE793
:100C40008083EBE3F0E08081EBE3F0E01082E8E307
:100C5000F0E08081E8E3F0E01082E5E3F0E08081FD
:100C6000E5E3F0E01082A2E3B0E0E2E3F0E08081AF
:100C700084788C93ABE3B0E0EBE3F0E080818C937D
:100C8000A8E3B0E0E8E3F0E080818C93A5E3B0E076
:100C9000E5E3F0E080818C93A2E3B0E0E2E3F0E0F2
:100CA00080818C930F900F900F90CF91DF910895DA
:100CB000DF93CF9300D000D00F92CDB7DEB78B83F8
:100CC0007D836C8381E08A8319828B81813210F06D
:100CD0001A8224C08B8186958695869589838B811F
:100CE00087708B838981882F90E0880F991FFC0182
:100CF000E859FE4F0190F081E02D8081282F30E0EF
:100D00008B81882F90E0A90102C0559547958A955F
:100D1000E2F7CA018170EC81FD8180838A810F90A6
:100D20000F900F900F900F90CF91DF910895DF9368
:100D3000CF9300D000D000D0CDB7DEB78B836C83CB
:100D400081E08A8319828B81813210F01A8263C01C
:100D50008B8186958695869589838B8187708B8319
:100D60008C81282F30E03E832D838D819E810097DA
:100D700061F12D813E812130310509F04CC089811E
:100D8000882F90E00496880F991FFC01E859FE4FC8
:100D9000A081B1818B81282F30E081E090E002C0FA
:100DA000880F991F2A95E2F7282F8981882F90E0D4
:100DB0000496880F991FFC01E859FE4F0190F081BD
:100DC000E02D8081822B8C9326C08981882F90E032
:100DD0000496880F991FFC01E859FE4FA081B1814C
:100DE0008B81282F30E081E090E002C0880F991FAE
:100DF0002A95E2F7282F20958981882F90E0049684
:100E0000880F991FFC01E859FE4F0190F081E02DF9
:100E1000808182238C938A8126960FB6F894DEBF58
:100E20000FBECDBFCF91DF910895DF93CF9300D058
:100E300000D0CDB7DEB78A837C836B8381E0898362
:100E40008A81853010F019820FC08A81882F90E046
:100E5000880F991FFC01E859FE4F0190F081E02DA9
:100E60008081EB81FC81808389810F900F900F90AE
:100E70000F90CF91DF910895DF93CF9300D00F9221
:100E8000CDB7DEB78A836B8381E089838A81853021
:100E900010F019820EC08A81882F90E00496880F86
:100EA000991FFC01E859FE4F0190F081E02D8B81E4
:100EB000808389810F900F900F90CF91DF910895DB
:100EC000DF93CF9300D000D000D0CDB7DEB78B83B7
:100ED0006C8381E08A8319828B81813210F01A82BF
:100EE00063C08B8186958695869589838B81877073
:100EF0008B838C81282F30E03E832D838D819E81D2
:100F0000009761F12D813E812130310509F04CC0FF
:100F10008981882F90E00896880F991FFC01E85975
:100F2000FE4FA081B1818B81282F30E081E090E0DD
:100F300002C0880F991F2A95E2F7282F8981882FF0
:100F400090E00896880F991FFC01E859FE4F019028
:100F5000F081E02D8081822B8C9326C08981882F9F
:100F600090E00896880F991FFC01E859FE4FA08178
:100F7000B1818B81282F30E081E090E002C0880FA2
:100F8000991F2A95E2F7282F20958981882F90E0D4
:100F90000896880F991FFC01E859FE4F0190F081D7
:100FA000E02D808182238C938A8126960FB6F89457
:100FB000DEBF0FBECDBFCF91DF910895DF93CF93FA
:100FC00000D00F92CDB7DEB78A836B8381E089832F
:100FD0008A81853010F019820EC08A81882F90E0B6
:100FE0000896880F991FFC01E859FE4F0190F08187
:100FF000E02D8B81808389810F900F900F90CF918E
:10100000DF910895DF93CF9300D000D00F92CDB73A
:10101000DEB78B837D836C8381E08A8319828B8129
:10102000813210F01A8225C08B818695869586952F
:1010300089838B8187708B838981882F90E00896C4
:10104000880F991FFC01E859FE4F0190F081E02DB7
:101050008081282F30E08B81882F90E0A90102C089
:10106000559547958A95E2F7CA018170EC81FD811B
:1010700080838A810F900F900F900F900F90CF91E7
:10108000DF910895DF93CF9300D000D0CDB7DEB7C6
:101090008A837C836B8381E089838A81853010F029
:1010A000198210C08A81882F90E00896880F991FB6
:1010B000FC01E859FE4F0190F081E02D8081EB8129
:1010C000FC81808389810F900F900F900F90CF91BA
:1010D000DF910895DF93CF93CDB7DEB7E5E5F0E07C
:1010E00081E08083E4E5F0E01082EBE5F0E080E46D
:1010F0008083EAE5F0E01082CF91DF910895DF93DD
:10110000CF9300D0CDB7DEB79A83898389819A8146
:1011100090938101809380010F900F90CF91DF9188
:101120000895DF93CF9300D0CDB7DEB79A8389833C
:1011300089819A8190938301809382010F900F900F
:10114000CF91DF910895DF93CF9300D0CDB7DEB775
:101150009A83898389819A81909385018093840100
:101160000F900F90CF91DF910895DF93CF9300D030
:1011700000D00F92CDB7DEB789836A834B83898114
:10118000282F30E03D832C838C819D818130910517
:10119000E9F12C813D812230310509F473C08C8145
:1011A0009D81009709F095C0A5E5B0E0E5E5F0E088
:1011B00080818E7F8C93A5E5B0E0E5E5F0E080814D
:1011C0008D7F8C93A5E5B0E0E5E5F0E08081982F78
:1011D0008A818170892B8C93A5E5B0E0E5E5F0E08C
:1011E0008081282F8A818695882F90E0880F991F0B
:1011F000822B8C938B81882309F06BC0ABE5B0E028
:10120000EBE5F0E0808180648C9363C0A5E5B0E0FD
:10121000E5E5F0E080818B7F8C93A5E5B0E0E5E526
:10122000F0E08081877F8C93A5E5B0E0E5E5F0E014
:101230008081282F8A81882F90E081709070880F9C
:10124000991F880F991F822B8C93A5E5B0E0E5E5E7
:10125000F0E08081282F8A818695882F90E0880F82
:10126000991F880F991F880F991F822B8C938B8150
:10127000882379F5ABE5B0E0EBE5F0E080818068AC
:101280008C9327C0A4E5B0E0E4E5F0E080818F7B9B
:101290008C93A4E5B0E0E4E5F0E08081282F8A811A
:1012A000882F90E081709070002496958795079420
:1012B000969587950794982F802D822B8C938B8100
:1012C000882339F4ABE5B0E0EBE5F0E080818062A3
:1012D0008C930F900F900F900F900F90CF91DF9104
:1012E0000895DF93CF9300D00F92CDB7DEB78983F7
:1012F0008981282F30E03B832A838A819B8181303A
:10130000910589F02A813B8122303105A1F08A8143
:101310009B810097B9F4ABE5B0E0EBE5F0E08081AC
:101320008F7B8C930FC0ABE5B0E0EBE5F0E0808104
:101330008F778C9307C0ABE5B0E0EBE5F0E0808100
:101340008F7D8C930F900F900F90CF91DF91089528
:101350001F920F920FB60F9211242F933F934F932A
:101360005F936F937F938F939F93AF93BF93EF930D
:10137000FF93DF93CF93CDB7DEB7E0918001F0917B
:1013800081010995CF91DF91FF91EF91BF91AF91CD
:101390009F918F917F916F915F914F913F912F918D
:1013A0000F900FBE0F901F9018951F920F920FB6BF
:1013B0000F9211242F933F934F935F936F937F93DB
:1013C0008F939F93AF93BF93EF93FF93DF93CF934D
:1013D000CDB7DEB7E0918201F09183010995CF91FD
:1013E000DF91FF91EF91BF91AF919F918F917F918D
:1013F0006F915F914F913F912F910F900FBE0F9082
:101400001F9018951F920F920FB60F9211242F93D1
:101410003F934F935F936F937F938F939F93AF937C
:10142000BF93EF93FF93DF93CF93CDB7DEB7E091F8
:101430008401F09185010995CF91DF91FF91EF91A2
:10144000BF91AF919F918F917F916F915F914F91DC
:101450003F912F910F900FBE0F901F901895DF9323
:10146000CF9300D0CDB7DEB79A83898389819A81E3
:1014700090938701809386010F900F90CF91DF9119
:1014800008951F920F920FB60F9211242F933F933E
:101490004F935F936F937F938F939F93AF93BF937C
:1014A000EF93FF93DF93CF93CDB7DEB7E091860143
:1014B000F09187010995CF91DF91FF91EF91BF9155
:1014C000AF919F918F917F916F915F914F913F91DC
:1014D0002F910F900FBE0F901F901895DF93CF9311
:1014E00000D0CDB7DEB79A83898389819A819093A2
:1014F0008901809388010F900F90CF91DF9108951B
:101500001F920F920FB60F9211242F933F934F9378
:101510005F936F937F938F939F93AF93BF93EF935B
:10152000FF93DF93CF93CDB7DEB7E0918801F091C1
:1015300089010995CF91DF91FF91EF91BF91AF9113
:101540009F918F917F916F915F914F913F912F91DB
:101550000F900FBE0F901F901895DF93CF93CDB7CC
:10156000DEB7E3E5F0E082E08083E9E5F0E085E0E6
:101570008083E8E5F0E01082CF91DF910895DF935A
:10158000CF93CDB7DEB7EFE4F0E01082EEE4F0E009
:1015900082E08083E9E5F0E085E08083E8E5F0E043
:1015A0001082CF91DF910895DF93CF930F92CDB743
:1015B000DEB78983E2E5F0E0898180830F90CF91E7
:1015C000DF910895DF93CF9300D0CDB7DEB79A8334
:1015D0008983E2E5F0E08081E981FA8180830F90E0
:1015E0000F90CF91DF910895DF93CF9300D0CDB7C7
:1015F000DEB79A838983ECE4F0E08081282F30E025
:10160000EDE4F0E08081882F90E0982F8827822BEE
:10161000932BE981FA81918380830F900F90CF9172
:10162000DF910895DF93CF9300D0CDB7DEB79A83D3
:101630008983ECE4F0E089818083EDE4F0E0898146
:101640009A81892F992780830F900F90CF91DF91F6
:101650000895DF93CF93CDB7DEB7EEE4F0E01082CC
:10166000CF91DF910895DF93CF93CDB7DEB78EE3AF
:101670009BE00E946E0ACF91DF910895DF93CF9394
:10168000CDB7DEB781E080938A0180E090E00E94D0
:10169000120BCF91DF910895DF93CF93CDB7DEB7D3
:1016A0002A970FB6F894DEBF0FBECDBF9A87898701
:1016B00081E08D831E8218861F8289E160E00E948E
:1016C00097061C821B8209C0000000000000000079
:1016D0008B819C8101969C838B838B819C8185303F
:1016E000910590F389E161E00E9497061A821982C0
:1016F00009C0000000000000000089819A81019665
:101700009A83898389819A818A30910590F389E14E
:1017100060E00E94970607C09E012A5F3F4F8AE162
:10172000B9010E9458068E818823B1F30E94BF0A36
:101730000FC09E012A5F3F4F8AE1B9010E945806FF
:1017400080918A01813021F410928A011D8203C0A8
:101750008E81882371F70E94290BCE0107960E9483
:10176000F40A8F819885CC01A0E0B0E0BC01CD01E6
:101770000E949D03DC01CB01BC01CD0122E430E6D7
:1017800045EE5CE30E941F02DC01CB01BC01CD01F0
:101790002DE637EE4BE85FE30E94F201DC01CB015E
:1017A000BC01CD010E944900DC01CB01E985FA852D
:1017B0009183808380E090E00E94120B8D812A96B5
:1017C0000FB6F894DEBF0FBECDBFCF91DF91089565
:1017D000DF93CF93CDB7DEB7CF91DF9108952F92EE
:1017E0003F924F925F926F927F928F929F92AF92B1
:1017F000BF92CF92DF92EF92FF920F931F93CF93FE
:10180000DF93CDB7DEB7CA1BDB0B0FB6F894DEBF94
:101810000FBECDBF09942A88398848885F846E84BA
:101820007D848C849B84AA84B984C884DF80EE8004
:10183000FD800C811B81AA81B981CE0FD11D0FB60D
:10184000F894DEBF0FBECDBFED010895F894FFCF31
:101850000000000000000000000102020303030377
:101860000404040404040404050505050505050530
:101870000505050505050505060606060606060610
:1018800006060606060606060606060606060606F8
:1018900006060606060606060707070707070707E0
:1018A00007070707070707070707070707070707C8
:1018B00007070707070707070707070707070707B8
:1018C00007070707070707070707070707070707A8
:1018D0000707070707070707080808080808080890
:1018E0000808080808080808080808080808080878
:1018F0000808080808080808080808080808080868
:101900000808080808080808080808080808080857
:101910000808080808080808080808080808080847
:101920000808080808080808080808080808080837
:101930000808080808080808080808080808080827
:101940000808080808080808080808080808080817
:101950000808080808080808390036003300300075
:101960003B003800350032003A00370034003100C7
:00000001FF
